:02000004080AE8
:1000000000000A0828480A0800000600060005014A
:0800100004024E040000000090
:1000180060420A0809480A4908B5884205D0094AD1
:10002800824202D0121A03F069FC0748074A0021ED
:10003800121A03F06EFC064808BD00BF000300203A
:1000480044470A08BC030020BC0300200C0A002017
:100058000C0A002070B502F0CFF8074B074C1E467B
:10006800E41AA4080025A54204D056F8253098477C
:100078000135F8E770BD00BFFC460A0834470A0896
:1000880000F0A8B908B500F091F8BDE8084002F002
:1000980075B801F0DBBD01F0E1BD0078B0FA80F081
:1000A80040097047012303707047106870470000CB
:1000B80008B502F083FEBDE808401422014900207B
:1000C80001F02EBCC00300201FB51E4C02F076FEC6
:1000D80014222146002001F01BFC2368072B15D0B1
:1000E8006FF003030722002184E80C000846FF2272
:1000F80001F07FFB4023E3601323237406220023CF
:10010800A0606374A274E374FFF7D2FF637C227C5F
:1001180068460D4901F09CFE69460C4801F08BFECB
:10012800684601F0F7FDE37CA27C6846064901F0C9
:100138008FFE6946064801F07EFE684601F0EAFD3A
:1001480004B010BDC003002074420A080C0400204B
:10015800D803002008B501F076FE054BC1B2D8607F
:10016800044801F04DFBFFF7A3FF012008BD00BFC5
:10017800C0030020E803002070B50A4C0646254657
:1001880000232380084801F039FB2188884207D9D9
:100198003246054801F0E2FA2B8801332B80F1E75B
:1001A80070BD00BF1C040020E80300202DE9F041C9
:1001B800224D2A7822B1224B9868FFF7DDFF05E02F
:1001C8001146104601F015FBFFF7D6FF1D4800F059
:1001D8000BFAFA2001F070FF01F049FF0F2390FBA2
:1001E800F3F3C3EB0313B0EB030824D101F046FF8C
:1001F800044601F04DFF124E3C27317C07FB0400FA
:10020800747CF27C07FB0144B17C07FB0122944219
:1002180008DD904204DBA042B4BF0020012009E0C1
:10022800012007E0A04204DB9042ACBF002001207F
:1002380000E040462870BDE8F08100BF00030020C0
:10024800C0030020E803002038B5046805467CB1E7
:100258006368013B63605BB9236820469B689847E5
:10026800A368013BA3601BB923682046DB68984755
:10027800284638BD1FB504460F4B10491B788DF82A
:10028800003002683C2302A802F02EF903A8FFF709
:10029800DBFF10220021206803F03CFCC2B2C0F34F
:1002A8000741C0F3072001F0A4FA054B9860FFF757
:1002B800FFFE012004B010BDD40300207E420A08CE
:1002C800C00300201FB58368042B24D10A22002113
:1002D800006803F01FFC642390FBF3F203FB120099
:1002E8003B281ADC172A18DC0E4B1A745874FFF7CF
:1002F800DFFEFFF7E9FE0C4B0C491A680C4B02A80D
:100308001B788DF800303C2302F0EEF803A8FFF7C5
:100318009BFF012003E0002001E04FF0FF3005B013
:100328005DF804FBC00300200C04002086420A0884
:10033800D40300201FB58368042B01D0002023E0DC
:100348000A220021006803F0E5FB642390FBF3F226
:1003580003FB12003B28F1DC172AEFDC0C4B9A74E4
:10036800D874FFF7A5FEFFF7AFFE0A4B0A491A68D3
:100378000A4B02A81B788DF800303C2302F0B4F831
:1003880003A8FFF761FF012005B05DF804FB00BF7B
:10039800C0030020D80300208E420A08D40300209E
:1003A8000246014801F097BFB3220A08002302223F
:1003B80001F014BC07B50823ADF80030044B042243
:1003C80001936B4601F00AFC03B05DF804FB00BF23
:1003D800B3000A082DE9F843214CFFF775FE2546BE
:1003E800DFF8A89055F8040F02F03EFF1D4F01F00A
:1003F80001FE1D4E1D494846FFF7D2FFDFF89080E9
:100408001B493846FFF7CCFF1A493046FFF7C8FFAB
:1004180019494046FFF7C4FF29461848FFF7C6FFA9
:1004280004F108014846FFF7C1FF04F10C014046FA
:10043800FFF7BCFF124C13493846FFF7BBFF1249C0
:100448003046FFF7B7FF204600F098F820464021D5
:1004580001F0D6F92046BDE8F84300F0C5B800BF62
:10046800C003002086420A088E420A087D020A0854
:10047800CD020A083D030A085D010A08A2420A08DB
:10048800E80300200C040020D803002080420A085A
:1004980097420A08F8B51A4B1A4D1B4C01221B4EFD
:1004A8001A701B4F01F0DCF9022300220A212846AA
:1004B80000F089F822461749284602F0CBFC164D71
:1004C8003146384601F06DFC3846144F224629461D
:1004D80002F0C0FC3146384601F063FC3846104F44
:1004E8002246294602F0B6FC3146384601F059FC4E
:1004F800224629463846BDE8F84002F0ABBC00BFAA
:10050800D4030020E8030020BC030020E2420A08CC
:100518000C04002031050A081D1D0A08D803002014
:10052800FC03002001F0D4B910B50446C06808B136
:1005380001F094FB23781BB10021E07902F0F2FB73
:10054800204610BD38B50446C0680D4608B101F014
:1005580085FBA379062B0CBF04200320684380B2D7
:10056800A08001F073FBE06028B1A288002103F0AD
:10057800D0F9658038BDA080608038BD10B50446CC
:100588000121C07902F0CEFB0021E07902F0DBFB0B
:100598000123237010BD38B5037805460C461BB1FE
:1005A8000021C07902F0BEFB2B78EC7153B1A4B2E4
:1005B8002046012102F0B6FB2046BDE83840002164
:1005C80002F0C1BB38BD70B50446164600258371DC
:1005D80005700572C5600561FFF7B4FF2046314616
:1005E800FFF7D9FF204670BDC368002B00F08E8549
:1005F8002DE9F0410446837986B0023BDBB2042B37
:1006080096BF294A322552F82350FFF78BFF2369FA
:10061800C01AA842F9D372B6A179A3880229ADF805
:100628000A30D4F80CE000F07282072900F06F82DB
:10063800062900F03284052900F0AB83082900F070
:10064800A883002940F06385184A4FF40006BDF8D6
:100658000A309BB2002B00F095830496BDF80A304F
:100668000EF10305033B9BB2ADF80A309EF800304B
:10067800DBB28DF807309EF80130DBB28DF806301A
:100688009EF80230DBB28DF808309DF807709DF8AF
:1006980006309DF808001B0243EA0743034303930F
:1006A8008DF805101BE100BFA8420A0820040020AD
:1006B800004600BF00BF00BF00BF00BF00BF00BFB3
:1006C80000BF00BF00BF00BF00BF00BF00BF00BF2A
:1006D80000BF00BF00BF00BF00BF00BF00BF00BF1A
:1006E80000BF00BF00BF00BF00BF00BF00BF00BF0A
:1006F80000BF00BF00BF00BF00BF00BF00BF00BFFA
:1007080000BF00BF00BF00BF00BF00BF00BF00BFE9
:1007180000BF00BF00BF00BF00BF00BF00BF00BFD9
:1007280000BF00BF00BF00BF00BF00BF00BF00BFC9
:1007380000BF00BF00BF00BF00BF00BF00BF00BFB9
:1007480000BF00BF00BF00BF00BF00BF00BF00BFA9
:1007580000BF00BF00BF00BF00BF00BF00BF00BF99
:1007680000BF00BF00BF00BF00BF00BF00BF00BF89
:1007780000BF00BF00BF00BF00BF00BF00BF00BF79
:1007880000BF00BF00BF00BF00BF00BF00BF00BF69
:1007980000BF00BF00BF00BF00BF00BF00BF00BF59
:1007A80000BF00BF00BF00BF00BF00BF00BF00BF49
:1007B80000BF00BF00BF00BFE3791068C3EBC303ED
:1007C80000EB8307BF8850F823305F83004600BFE3
:1007D80000BF00BF00BF00BF00BF00BF00BF00BF19
:1007E80000BF00BF00BF00BF00BF00BF00BF00BF09
:1007F80000BF00BF00BF00BF00BF00BF00BF00BFF9
:1008080000BF00BF00BF00BF00BF00BF00BF00BFE8
:1008180000BF00BF00BF00BF00BF00BF00BF00BFD8
:1008280000BF00BF00BF00BF00BF00BF00BF00BFC8
:1008380000BF00BF00BF00BF00BF00BF00BF00BFB8
:1008480000BF00BF00BF00BF00BF00BF00BF00BFA8
:1008580000BF00BF00BF00BF00BF00BF00BF00BF98
:1008680000BF00BF00BF00BF00BF00BF00BF00BF88
:1008780000BF00BF00BF00BF00BF00BF00BF00BF78
:1008880000BF00BF00BF00BF00BF00BF00BF00BF68
:1008980000BF00BF00BF00BF00BF00BF00BF00BF58
:1008A80000BF00BF00BF00BF00BF00BF00BF00BF48
:1008B80000BF00BF00BF00BF00BF00BF00BF00BF38
:1008C80000BF00BF00BF049B5B0804939DF8053080
:1008D8000133DBB2172B8DF8053000F2DB82E379A8
:1008E8001068C3EBC30300EB8307BF8850F82330BD
:1008F8001F830398049B18427FF4DAAE004600BFBA
:1009080000BF00BF00BF00BF00BF00BF00BF00BFE7
:1009180000BF00BF00BF00BF00BF00BF00BF00BFD7
:1009280000BF00BF00BF00BF00BF00BF00BF00BFC7
:1009380000BF00BF00BF00BF00BF00BF00BF00BFB7
:1009480000BF00BF00BF00BF00BF00BF00BFE3790A
:100958001068C3EBC30300EB8307BF8850F823304C
:100968005F83004600BF00BF00BF00BF00BF00BFDD
:1009780000BF00BF00BF00BF00BF00BF00BF00BF77
:1009880000BF00BF00BF00BF00BF00BF00BF00BF67
:1009980000BF00BF00BF00BF00BF00BF00BF00BF57
:1009A80000BF00BF00BF00BF00BF00BF00BF00BF47
:1009B80000BF00BF00BF00BF00BF00BF00BF00BF37
:1009C80000BF00BF00BF00BF00BF00BF00BF00BF27
:1009D80000BF00BF00BF00BF00BF00BF00BF00BF17
:1009E80000BF00BF00BF00BF00BF00BF00BF00BF07
:1009F80000BF00BF00BF00BF00BF00BF00BF00BFF7
:100A080000BF00BF00BF00BF00BF00BF00BF00BFE6
:100A180000BF00BF00BF00BF00BF00BF00BF00BFD6
:100A280000BF00BF00BF00BF00BF00BF00BF00BFC6
:100A380000BF00BF00BF00BF00BF00BF00BF00BFB6
:100A480000BF00BF00BF00BF00BF00BF00BF00BFA6
:100A580000BF00BF00BF00BF00BF00BF00BF00BF96
:100A680000BF00BF00BF00BF00BF00BF00BF00BF86
:100A780000BF00BF00BF00BF00BF00BF00BF00BF76
:100A880000BF00BF00BF00BF00BF00BF00BF00BF66
:100A980000BF00BF00BF00BF00BF00BF00BF00BF56
:100AA80000BF00BF00BF00BF00BF00BF00BF00BF46
:100AB80000BF00BF00BF00BF00BF00BF00BF00BF36
:100AC80000BF00BF00BF00BF00BF00BF00BF00BF26
:100AD80000BF00BF00BF00BF00BF00BF00BF00BF16
:100AE80000BF00BF00BF00BF00BF00BF00BF00BF06
:100AF80000BF00BF00BF00BF00BF00BF00BF00BFF6
:100B080000BF00BF00BF00BF00BF00BFDBE6BDF8ED
:100B18000A30174A9BB24FF400050026002B00F05C
:100B280031810495BDF80A300EF10301033B9BB2F5
:100B3800ADF80A309EF80030DBB28DF806309EF82A
:100B48000130DBB28DF807309EF80230DBB28DF849
:100B580008309DF806309DF807009DF808700002DF
:100B680040EA03433B4303938DF8056080E000BFF0
:100B780020040020004600BF00BF00BF00BF00BF28
:100B880000BF00BF00BF00BF00BF00BF00BF00BF65
:100B980000BF00BF00BF00BF00BF00BF00BF00BF55
:100BA80000BF00BF00BF00BF00BF00BF00BF00BF45
:100BB80000BF00BF00BF00BF00BF00BF00BF00BF35
:100BC80000BF00BF00BF00BF00BF00BF00BF00BF25
:100BD80000BF00BF00BF00BF00BF00BF00BF00BF15
:100BE80000BF00BF00BF00BF00BF00BF00BF00BF05
:100BF80000BF00BF00BF00BF00BF00BF00BF00BFF5
:100C080000BF00BF00BF00BF00BF00BF00BFE37947
:100C18001068C3EBC30300EB8307BF8850F8233089
:100C28005F83004600BF00BF00BF00BF00BF00BF1A
:100C380000BF00BF00BF00BF00BF00BF00BF00BFB4
:100C480000BF00BF00BF00BF00BF00BF00BF00BFA4
:100C580000BF00BF00BF00BF049B5B0804939DF862
:100C680005300133DBB2172B8DF8053000F2838095
:100C7800E3791068C3EBC30300EB8307BF8850F820
:100C880023301F830398049B18427FF473AF0046F8
:100C980000BF00BF00BF00BF00BF00BF00BF00BF54
:100CA80000BF00BF00BF00BF00BF00BF00BF00BF44
:100CB80000BF00BF00BFE3791068C3EBC30300EBBC
:100CC8008307BF8850F823305F83004600BF00BF0A
:100CD80000BF00BF00BF00BF00BF00BF00BF00BF14
:100CE80000BF00BF00BF00BF00BF00BF00BF00BF04
:100CF80000BF00BF00BF00BF00BF00BF00BF00BFF4
:100D080000BF00BF00BF00BF00BF00BF00BF00BFE3
:100D180000BF00BF00BF00BF00BF00BF00BF00BFD3
:100D280000BF00BF00BF00BF00BF00BF00BF00BFC3
:100D380000BF00BF00BF00BF00BF00BF00BF00BFB3
:100D480000BF00BF00BF00BF00BF00BF00BF00BFA3
:100D580000BF00BF00BF00BF00BF00BF00BF00BF93
:100D680000BF00BF00BF00BF00BF00BF00BF00BF83
:100D780000BF00BF70E7BDF80A308E469BB2002B5B
:100D88007FF4CFAE62B6FFF7CDFB206106B0BDE8B9
:100D9800F0815E4B5E4A184611684FF40008002740
:100DA800BDF80A2092B2002AECD0CDF81080BDF828
:100DB8000A200EF10305033A92B2ADF80A209EF814
:100DC8000020D2B28DF806209EF80120D2B28DF80C
:100DD80007209EF80220D2B28DF808209DF8062040
:100DE8009DF807E09DF808C04FEA0E2E4EEA024231
:100DF80042EA0C0203928DF80570E2795E68C2EB54
:100E0800C20201EB820EBEF804E051F822200596DA
:100E1800A2F818E0039E049A164223D05A68059E49
:100E2800921B4F2AFAD9E279C2EBC20201EB820E79
:100E3800BEF804E051F82220A2F81AE042680592B0
:100E48005A68059E921B072AFAD9049A52080492F6
:100E58009DF805200132D2B2172A8DF80520CCD989
:100E6800AE469DE75A68059E921B182AFAD9E27980
:100E7800C2EBC20201EB820EBEF804E051F8222058
:100E8800A2F81AE0426805925A68059E921B452A04
:100E9800FAD9DAE7AE46FFF7DABB1D4A4FF000454C
:100EA8000026BDF80A309BB2002B3FF46BAF0495C7
:100EB800BDF80A300EF10401043B9BB2ADF80A30CC
:100EC8009EF80030DBB28DF807309EF80130DBB2B7
:100ED8008DF806309EF80230DBB28DF808309EF8A7
:100EE8000330DBB28DF809309DF807309DF80670A5
:100EF8009DF808E03F049DF8090047EA03630343AF
:100F080043EA0E2303938DF805607EE0001000E0AD
:100F180020040020004600BF00BF00BF00BF00BF84
:100F280000BF00BF00BF00BF00BF00BF00BF00BFC1
:100F380000BF00BF00BF00BF00BF00BF00BF00BFB1
:100F480000BF00BF00BF00BF00BF00BF00BF00BFA1
:100F580000BF00BF00BF00BF00BF00BF00BF00BF91
:100F680000BF00BF00BF00BF00BF00BF00BF00BF81
:100F780000BF00BF00BF00BF00BF00BF00BF00BF71
:100F880000BFE3791068C3EBC30300EB8307BF8896
:100F980050F823305F83004600BF00BF00BF00BF8A
:100FA80000BF00BF00BF00BF00BF00BF00BF00BF41
:100FB80000BF00BF00BF00BF00BF00BF00BF00BF31
:100FC80000BF00BF00BF00BF00BF00BF00BF00BF21
:100FD80000BF00BF00BF00BF00BF00BF00BF00BF11
:100FE80000BF00BF00BF00BF00BF00BF00BF00BF01
:100FF80000BF00BF049B5B0804939DF805300133D4
:10100800DBB21F2B8DF805307ED8E3791068C3EB6F
:10101800C30300EB8307BF8850F823301F8303986E
:10102800049B18427FF476AF004600BF00BF00BFA4
:1010380000BF00BF00BF00BF00BF00BF00BF00BFB0
:1010480000BF00BF00BF00BF00BF00BF00BF00BFA0
:10105800E3791068C3EBC30300EB8307BF8850F83C
:1010680023305F83004600BF00BF00BF00BF00BF42
:1010780000BF00BF00BF00BF00BF00BF00BF00BF70
:1010880000BF00BF00BF00BF00BF00BF00BF00BF60
:1010980000BF00BF00BF00BF00BF00BF00BF00BF50
:1010A80000BF00BF00BF00BF00BF00BF00BF00BF40
:1010B80000BF00BF00BF00BF00BF00BF00BF00BF30
:1010C80000BF00BF00BF00BF00BF00BF00BF00BF20
:1010D80000BF00BF00BF00BF00BF00BF00BF00BF10
:1010E80000BF00BF00BF00BF00BF00BF00BF00BF00
:1010F80000BF00BF00BF00BF00BF00BF00BF00BFF0
:1011080000BF00BF00BF75E78E46CAE670470329D7
:1011180000F02E811E4A4FF400050026BDF80A3063
:101128009BB2002B3FF42EAE0495BDF80A30E0794F
:10113800033B9BB2ADF80A309EF800300EF1030174
:10114800DBB28DF807309EF80130C0EBC000DBB28F
:101158008DF808309EF80230D2F800E0DBB28DF846
:1011680006309DF807709DF808300EEB800C1B02C6
:1011780043EA07439DF80670BCF804C05EF82000F7
:101188003B4303938DF80560A0F81AC07DE000BFCB
:1011980020040020049B5B080493004600BF00BFA6
:1011A80000BF00BF00BF00BF00BF00BF00BF00BF3F
:1011B80000BF00BF00BF00BF00BF00BF00BF00BF2F
:1011C80000BF00BF00BF00BF00BF00BF00BF00BF1F
:1011D80000BF00BF00BF00BF00BF00BF00BF00BF0F
:1011E80000BF00BF00BF00BF00BF00BF00BF00BFFF
:1011F80000BF00BF00BF00BF00BF00BF00BF00BFEF
:1012080000BF00BF00BF00BF00BF00BF00BF00BFDE
:1012180000BF00BF00BF00BF00BF00BF00BF00BFCE
:10122800E07917689DF80530C0EBC00007EB800E29
:10123800BEF804E057F820000133DBB28DF8053022
:10124800A0F818E0004600BF00BF00BF00BF00BF05
:1012580000BF00BF00BF00BF00BF00BF00BF00BF8E
:1012680000BF00BF00BF00BF00BF00BF00BF9DF8A8
:101278000530182B7AD0E3791068C3EBC30300EB71
:101288008307BF8850F823305F830398049B184274
:1012980080D1004600BF00BF00BF00BF00BF00BF35
:1012A80000BF00BF00BF00BF00BF00BF00BF00BF3E
:1012B80000BF00BFE3791068C3EBC30300EB8307EB
:1012C800BF8850F823301F839DF805300133DBB207
:1012D8008DF80530049B5B080493004600BF00BFEF
:1012E80000BF00BF00BF00BF00BF00BF00BF00BFFE
:1012F80000BF00BF00BF00BF00BF00BF00BF00BFEE
:1013080000BF00BF00BF00BF00BF00BF00BF00BFDD
:1013180000BF00BF00BF00BF00BF00BF00BF00BFCD
:1013280000BF00BF00BF00BF00BF00BF00BF00BFBD
:1013380000BF00BF00BF00BF00BF00BF00BF00BFAD
:1013480000BF00BF00BF00BF00BF00BF00BF00BF9D
:1013580000BF00BF00BF00BF00BF00BF00BF00BF8D
:1013680000BF00BF9DF80530182B84D18E46D5E606
:10137800174A4FF400050026BDF80A309BB2002B2F
:101388003FF400AD0495BDF80A300EF10301033BAC
:101398009BB2ADF80A309EF80030DBB28DF807300A
:1013A8009EF80130DBB28DF806309EF80230DBB2D1
:1013B8008DF808309DF807709DF806309DF80800F4
:1013C8001B0243EA0743034303938DF80560E0E0FB
:1013D80020040020004600BF00BF00BF00BF00BFC0
:1013E80000BF00BF00BF00BF00BF00BF00BF00BFFD
:1013F80000BF00BF00BF00BF00BF00BF00BF00BFED
:1014080000BF00BF00BF00BF00BF00BF00BF00BFDC
:1014180000BF00BF00BF00BF00BF00BF00BF00BFCC
:1014280000BF00BF00BF00BF00BF00BF00BF00BFBC
:1014380000BF00BF00BF00BF00BF00BF00BF00BFAC
:1014480000BF00BF00BF00BF00BF00BF00BF00BF9C
:1014580000BF00BF00BF00BF00BF00BF00BF00BF8C
:1014680000BF00BF00BF00BF00BF00BF00BF00BF7C
:1014780000BF00BF00BF00BF00BF00BF00BF00BF6C
:1014880000BF00BF00BF00BF00BF00BF00BF00BF5C
:1014980000BF00BF00BF00BF00BF00BF00BF00BF4C
:1014A80000BF00BF00BF00BF00BF00BF00BF00BF3C
:1014B80000BF00BF00BF00BF00BF00BF00BF00BF2C
:1014C80000BF00BF00BF00BF00BF00BF00BF00BF1C
:1014D80000BF00BF00BF00BF00BF00BF00BF00BF0C
:1014E80000BF00BF00BF00BF00BF00BF00BF00BFFC
:1014F80000BF00BF00BFE3791068C3EBC30300EB74
:101508008307BF8850F823305F83004600BF00BFC1
:1015180000BF00BF00BF00BF00BF00BF00BF00BFCB
:1015280000BF00BF00BF00BF00BF00BF00BF00BFBB
:1015380000BF00BF00BF00BF00BF00BF00BF00BFAB
:1015480000BF00BF00BF00BF00BF00BF00BF00BF9B
:1015580000BF00BF00BF00BF00BF00BF00BF00BF8B
:1015680000BF00BF00BF00BF00BF00BF00BF00BF7B
:1015780000BF00BF00BF00BF00BF049B5B0804930F
:101588009DF805300133DBB2172B8DF8053000F2DA
:10159800E380E3791068C3EBC30300EB8307BF88DC
:1015A80050F823301F830398049B18427FF412AF2E
:1015B800004600BF00BF00BF00BF00BF00BF00BFA4
:1015C80000BF00BF00BF00BF00BF00BF00BF00BF1B
:1015D80000BF00BF00BF00BF00BF00BF00BF00BF0B
:1015E80000BF00BF00BF00BF00BF00BF00BF00BFFB
:1015F80000BF00BF00BF00BF00BF00BF00BF00BFEB
:1016080000BF00BF00BF00BF00BF00BF00BF00BFDA
:1016180000BF00BF00BF00BF00BF00BF00BF00BFCA
:1016280000BF00BF00BF00BF00BF00BF00BF00BFBA
:1016380000BFE3791068C3EBC30300EB8307BF88DF
:1016480050F823305F83004600BF00BF00BF00BFD3
:1016580000BF00BF00BF00BF00BF00BF00BF00BF8A
:1016680000BF00BF00BF00BF00BF00BF00BF00BF7A
:1016780000BF00BF00BF00BF00BF00BF00BF00BF6A
:1016880000BF00BF00BF00BF00BF00BF00BF00BF5A
:1016980000BF00BF00BF00BF00BF00BF00BF00BF4A
:1016A80000BF00BF00BF00BF00BF00BF00BF00BF3A
:1016B80000BF00BF00BF00BF00BF00BF00BF00BF2A
:1016C80000BF00BF00BF00BF00BF00BF00BF00BF1A
:1016D80000BF00BF00BF00BF00BF00BF00BF00BF0A
:1016E80000BF00BF00BF00BF00BF00BF00BF00BFFA
:1016F80000BF00BF00BF00BF00BF00BF00BF00BFEA
:1017080000BF00BF00BF00BF00BF00BF00BF00BFD9
:1017180000BF00BF00BF00BF00BF00BF00BF00BFC9
:1017280000BF00BF00BF00BF00BF00BF00BF00BFB9
:1017380000BF00BF00BF00BF00BF00BF00BF00BFA9
:1017480000BF00BF00BF00BF00BF00BF00BF00BF99
:1017580000BF00BF00BF10E78E460DE64388F0B516
:101768008B4245D9057AC2F30743C2F30724D6B2A0
:1017780045B16B436C436E43C3F30723C4F307249B
:10178800C6F3072690F806C0C768BCF1060F0CBF61
:10179800042503256943BCF1080F07EB010524D88C
:1017A8004FF0010E0EFA0CFE1EF4D27F0CD11EF083
:1017B800400F0DD11EF0100F17D0FF2B08BFFE23CE
:1017C8007B546E70AC70F0BD7C546B70AE70F0BD25
:1017D8007B546C70AE70037A120E0BB9D2B202E071
:1017E8005A43C2F30722EA70F0BD7B546C70AE70A6
:1017F800F0BD42EA012242EA004070474088704743
:101808004A1C037AD2B29A4270B51ED0013B13F03B
:10181800FF03C4680CD0FF290FBF4FF6FF711102F8
:1018280001F1FF3191FBF3F30CBF91FBF3F39BB292
:101838002546291B868889B28E4205D929785943BD
:10184800091205F8011BF4E7027270BD08B500F033
:1018580007F800F005F8014B186008BD20040020C7
:1018680008B5024B1B681B68019308BDB001060848
:1018780008B5024B1B689B68019308BDB0010608B8
:1018880008B5024B1B68DB68019308BDB001060868
:1018980008B5024B1B681B69019308BDB001060817
:1018A80008B5024B1B68DB69019308BDB401060843
:1018B80008B5024B1B681B6A019308BDB4010608F2
:1018C80008B5024B1B685B68019308BD9C010608BC
:1018D80008B5024B1B681B69019308BD9C010608EB
:1018E80008B5024B1B685B69019308BD9C0106089B
:1018F80008B5024B1B68DB69019308BD9C0106080B
:1019080008B5024B1B689B6A019308BD9C01060839
:1019180008B5024B1B685B6C019308BD9C01060867
:1019280008B5024B1B689B6C019308BD9C01060817
:1019380008B5024B1B689B6D019308BD9C01060806
:1019480008B5024B1B681B6B019308BDD001060844
:1019580008B5024B1B689B69019308BDC4010608C2
:1019680008B5024B1B685B6A019308BDC4010608F1
:1019780008B5024B1B689B6A019308BDC4010608A1
:1019880008B5024B1B68DB6A019308BDC401060851
:1019980008B5024B1B681B6B019308BDC401060800
:1019A80008B5024B1B685B6B019308BDC4010608B0
:1019B80008B5024B1B689B6B019308BDC401060860
:1019C80008B5024B1B681B6C019308BDC4010608CF
:1019D80008B5024B1B681B6E019308BDAC010608D5
:1019E80008B5024B1B685B6E019308BDAC01060885
:1019F80008B5024B1B689B6E019308BDAC01060835
:101A080008B5024B1B68DB6E019308BDAC010608E4
:101A180008B5024B1B681B6F019308BDAC01060893
:101A280008B5024B1B685B6F019308BDAC01060843
:101A380008B5034B1B68D3F88030019308BD00003C
:101A4800AC01060808B5024B1B681B68019308BD6A
:101A5800D801060808B5024B1B681B69019308BD2D
:101A6800D801060808B5024B1B685B69019308BDDD
:101A7800D801060808B5024B1B689B69019308BD8D
:101A8800D801060808B5024B1B68DB69019308BD3D
:101A9800D801060808B5024B1B681B6A019308BDEC
:101AA800D801060808B5024B1B689B6C019308BD5A
:101AB800C001060808B5024B1B681B68019308BDE6
:101AC800A401060808B5024B1B685B68019308BDB2
:101AD800A401060808B5024B1B685B69019308BDA1
:101AE800A401060808B5024B1B68DB6C019308BD0E
:101AF800A401060808B5024B1B685B6D019308BD7D
:101B0800A401060808B5024B1B689B6D019308BD2C
:101B1800A401060808B5034B1B68D3F8903001935D
:101B280008BD0000A401060808B5034B1B68D3F8DC
:101B38009C30019308BD0000A401060808B5024BBB
:101B48001B685B68019308BDC801060808B5024B0D
:101B58001B689B68019308BDC801060808B5024BBD
:101B68001B68DB68019308BDC801060808B5024B6D
:101B78001B681B69019308BDC801060808B5024B1C
:101B88001B685B69019308BDC801060808B5024BCC
:101B98001B689B69019308BDC801060808B5024B7C
:101BA8001B68DB69019308BDC801060808B5024B2C
:101BB8001B681B6A019308BDC801060808B5024BDB
:101BC8001B681B6B019308BDC801060808B5024BCA
:101BD8001B685B6B019308BDC801060808B5024B7A
:101BE8001B681B68019308BDCC01060808B5024BA9
:101BF8001B685B68019308BDCC01060808B5024B59
:101C08001B689B68019308BDCC01060808B5024B08
:101C18001B685B69019308BDCC01060808B5024B37
:101C28001B681B6A019308BDCC01060808B5024B66
:101C38001B681B6B019308BDCC01060808B5024B55
:101C48001B68DB6B019308BDCC01060808B5024B85
:101C58001B681B68019308BDA001060808B5024B64
:101C68001B685B68019308BDA001060808B5024B14
:101C78001B689B68019308BDA001060808B5024BC4
:101C88001B689B69019308BDA001060808B5024BB3
:101C98001B685B6A019308BDA001060808B5024BE2
:101CA8001B68DB6A019308BDA001060808B5024B52
:101CB8001B681B6B019308BDA0010608704710B58F
:101CC8000446FEF7E8F9204610BD000070B504464A
:101CD8000E46074B0025036040F80C5FFFF730FE07
:101CE80030462671FFF7DCFDA560204670BD00BFB9
:101CF800C4420A080079FFF7DBBD00004FF6FF7207
:101D0800034B0020187058809A80FFF7DBBE00BF95
:101D18002404002010B504460068FFF79FFF204602
:101D280010BD10B50446006808B1FFF797FF0023FF
:101D38002360A360636010BD38B504460D46006893
:101D48000131FFF793FF10B184E82100012038BD6D
:101D580010B50368044613B143688B4207D2204686
:101D6800FFF7EAFF20B1A3680BB9226813700120BE
:101D780010BD70B50E46114604461546FFF7E8FF3C
:101D880018B92046FFF7CDFF09E02A463146A5607D
:101D9800206801F0B3FD2268A3680021D1542046D1
:101DA80070BD38B500230446036043608360037345
:101DB8000D4639B1084601F00AFE2946024620467A
:101DC800FFF7D7FF204638BD38B5054600680C46F2
:101DD80060B16A688B689A4206D3096801F0D4FD3D
:101DE800A368AB6000230AE0FFF738FF23682B6085
:101DF80063686B60A368AB60002323606360A360C3
:101E080038BD884210B50B46044607D0096819B199
:101E18009A68FFF7AEFF01E0FFF783FF204610BD89
:101E280010B5044600230360436083600373FFF723
:101E3800E8FF204610BD884210B5044601D0FFF7E0
:101E4800C3FF204610BD006808B101F04DBC7047C3
:101E58000EB4FFB509AC54F8047B054623463A4650
:101E6800052102A80194FFF711FF06460B492846F1
:101E7800FFF797FF31462846FFF76AFF286830B119
:101E880023463A46711C0194FFF700FFA8602846D4
:101E980004B0BDE8F04003B0704700BFE2420A0852
:101EA800F8B506460D468F180024BD420CD033689D
:101EB80015F8011B9B6830469847002801DB04444D
:101EC800F3E7002C08BF04462046F8BD70B5054668
:101ED8000C46084649B101F07AFD2B6802462146B6
:101EE8002846BDE87040DB68184770BD03689B68EA
:101EF8001847012A98BF0A2230B50B468BB000213B
:101F08008DF824100DF12304B3FBF2F505FB123311
:101F1800DBB2092B94BF30333733DBB2214604F8E8
:101F280001392B46002DEFD1FFF7D0FF0BB030BDA4
:101F380010B422B90368C9B29B6810BC1847D2B262
:101F480010BCFFF7D6BFFFF7F3BF00231A461946A8
:101F58004068FFF713BE0B68036013B15A6801327B
:101F68005A607047014A024B1A60704787430A0853
:101F78002C040020F0B5144B144F1E68144B064473
:101F880018683B6806449E428BB01BD00AA840F8EC
:101F9800286D01F0BBFB0446436901AD03F26C7385
:101FA80043610FCC0FC50FCC0FC5D4F800E0094C26
:101FB800C5F800E001AD0FCD0FC40FCD0FC43E60D2
:101FC800C4F800E00BB0F0BD600400205C04002001
:101FD800580400203004002008B50020FFF726FE32
:101FE80028B1FFF713FE80F00100C0B208BD012040
:101FF80008BD000010B50949044601F027FB60B987
:102008000749204601F040FB38B90649204601F04F
:102018007FF901F043FB044B186010BD000040C17C
:1020280000006041000061456004002010B50020F8
:10203800FFF77EFC044668B9FFF73CFD01280BD189
:102048002046FFF75FFD38B9FFF7C6FF30B9FFF745
:10205800D5FDF9E7012010BD002010BDFFF7BCFF3A
:102068000020FFF765FC003018BF012010BD08B53F
:10207800FFF7DCFFBDE80840FFF73ABC08B5FFF7FB
:10208800F6FFFFF777FF014B986808BD3004002082
:1020980008B5FFF7ECFFFFF76DFF014B586808BD67
:1020A80030040020024B1A68024B1A60704700BFC8
:1020B80004030020540400200021FFF70BBD10B5D5
:1020C8008368044613B1032201469847204610BD91
:1020D80010B50446FFF7F3FF204610BD13B50B46B5
:1020E800044603C88DE8030093E8030084E803006E
:1020F8009DE8030083E8030002B010BD03480023F5
:102108008360034A034900F0A5BE00BF64040020B1
:10211800BC030020D9200A0808B5144B33B100F0DD
:10212800FDFB03681B699847002816DC104B33B188
:1021380000F09AFC03681B699847002810DC0D4BD7
:102148000BB1AFF300800C4B7BB100F023FC0368AC
:102158001B699847002806DC08BDAFF30080E5E757
:10216800AFF30080EBE7AFF3008008BD000000008C
:1021780000000000000000000000000008B5FFF7A4
:10218800CBFFFFF7ADFB014B186008BD0809002025
:102198000248034A0349121A01F0B0BB004002404A
:1021A8000440024040470A0807B5002300931A4636
:1021B8006FF07701FFF7B8FC03B05DF804FB00008F
:1021C80007B543880A2B08D0502B09D1094B1B6847
:1021D8003BB103B05DF804EB1847FFF7E5FF06E0F5
:1021E800002300931A466FF07701FFF79DFC03B0B8
:1021F8005DF804FB7404002038B5104C104D2368BA
:10220800AB42104B0CBF012200221A7002D0FFF71C
:10221800BFFF2560FFF754FB044601F083FB0A4B20
:1022280013B12046AFF3008000210748FFF706FDF1
:10223800BDE8384000210548FFF76CBC004002406B
:102248001E1C279A7804002000000000C9210A08F3
:1022580070470020704710B50446FDF71CFF204664
:1022680010BD08B508B1FFF7F6FF08BD38B5C4685A
:10227800D4B12378022B02D1E068FFF7EFFC656840
:102288002DB12846FFF71BFF2846FDF704FFA56878
:102298002DB12846FFF713FF2846FDF7FCFE204620
:1022A800BDE83840FDF7F7BE38BD10B588B0044624
:1022B8006846FFF776FD694604A8FFF7B1FD04A854
:1022C800A047044604A8FFF725FD6846FFF722FD4E
:1022D800204608B010BDF0B507460E46154685B035
:1022E800102422460021684601F013FB00226946AB
:1022F8001046ADF80040029703960195FFF776FC6B
:1023080005B0F0BD13B5044691E8050000234B6005
:102318000B602060626001A801930093FDF794FFB1
:10232800204602B010BDF7B50C4606460F4654F8D5
:10233800043B02AD45F8083D214601A8FFF70BFE16
:1023480029463046FFF7DEFF01A8FDF77DFF20464E
:10235800FDF77AFF3846FDF79EFE304603B0F0BD24
:10236800826810B50AB900F07AFDC368BDE810406C
:10237800184708B5006800F11001FFF7F1FF08BD24
:10238800826810B50AB900F06AFDC368BDE810405C
:10239800184708B5006800F11001FFF7F1FF08BD04
:1023A80038B5002383608B6804460D462BB10222A2
:1023B8009847EB68E360AB68A360204638BD00002F
:1023C8002DE9F0414FF69C7304684FF0020086B087
:1023D800B1F904208B8000230F688DF800300B6062
:1023E800D4E84F1F994203D1C4E8450F002DF7D117
:1023F80002D08DF800106BE014F10C051CBFE760EB
:102408002282BFF35F8F18BF1F4601236370BFF39B
:102418005F8F04F10803002053E8006F43E80002CF
:10242800002AF9D1BFF35F8F002E51D0FFF75AFB76
:1024380020B129463046FFF793FF43E0314668460E
:10244800FFF7AEFFE068B4F9105008B101F0A4FA44
:1024580004901020ADF81450FDF71BFE054630B36C
:102468004FF00008C0F808801820FDF712FE044657
:10247800C0B1C0F8088001466846FFF72FFE029BEE
:10248800A268A360039B0292E268E360BDF814307F
:102498000392A3824FF69C73ADF81430049BCDF8D9
:1024A800108023610D4B2C60EB600D4BAB600498E2
:1024B800FFF7D4FB6846FFF702FE002229460948C9
:1024C800FFF718FB3046FFF7FAFD3046FDF7E3FD4E
:1024D8003846FFF7C3FB06B0BDE8F0817B230A0846
:1024E800D9250A08BD2A0A082DE9F04F8BB007AD97
:1024F8004FF0000B0646994614200C230F469046D1
:102508009DF850A0C5F804B0C5F808B00793FDF7CA
:10251800C0FD044638B180F800B080F801B0C0F8BA
:1025280004B0C0F808B00023102003940493FDF70A
:10253800B0FD28B1012343608360234BC46003606E
:10254800224B049008200893FDF7A3FD044628B108
:10255800039B04A940F8043BFFF7FDFC00955FFAD4
:102568008AF34A46414638460994FFF757FBB8B9FB
:10257800039B5B7803F0FF0293B94FF69C7305A9A0
:1025880003A80592ADF81830FFF71AFF0598FFF772
:1025980065FB05A80999FFF7C6FE06A8FDF754FED6
:1025A800039B04A906A80593FFF7D5FC05A93046A7
:1025B800FFF7A8FE06A8FDF747FE04A8FDF744FEAE
:1025C80030460BB0BDE8F08FE0430A0841270A08FF
:1025D800022AF8B5044606D0032A17D0012A20D1CA
:1025E8000B6803601DE018200E68FDF752FD0546D4
:1025F80050B13146FFF7D4FE3069B6F9147008B10E
:1026080001F0CAF92861AF8225600AE0046844B184
:102618002069FFF723FB2046FFF751FD2046FDF711
:102628003AFD0020F8BD38B5002383608B68044666
:102638000D462BB102229847EB68E360AB68A360B4
:10264800204638BD022A70B5044606D0032A11D0A8
:10265800012A17D10B68036014E014200E68FDF7F7
:1026680018FD054620B13146FFF7DDFF337C2B749A
:10267800256007E004682CB12046FFF720FD2046BE
:10268800FDF709FD002070BDF0B50C46BFF35F8F64
:1026980087B0002350E8006F40E80032002AF9D1E3
:1026A800BFF35F8F002E3ED01846FFF71BFA074690
:1026B80020B121463046FFF763FE2EE0314601A8DF
:1026C800FFF7B1FF237810208DF81430FDF7E1FCF7
:1026D8000546D0B187601420FDF7DBFC044678B1CD
:1026E8008760014601A8FFF7F9FC039BA268A36075
:1026F800049B0392E268E3609DF81430049223740B
:102708000A4B2C60EB600A4BAB6001A8FFF7D7FCC3
:10271800002229460748FFF7EDF93046FFF7CFFCBE
:102728003046FDF7B8FC07B0F0BD00BF9B230A0890
:102738004D260A08BD2A0A0830B5044685B00D465C
:1027480068461146FFF7EFFD7CB124B228460DB16B
:1027580001F022F9029002A96846ADF80C40FFF793
:102768002FFE0298FFF77AFA1DE04FF00102009859
:102778008DF80840D0E84F3FA34203D1C0E8412F6D
:102788000029F7D102D08DF808300CE010F10C01C7
:102798004FF0010318BF0373BFF35F8F043000F8D5
:1027A800033CFFF771FF01A8FDF74EFD05B030BDF2
:1027B800704710B50446FDF76EFC204610BDF8B50D
:1027C8000F4600F10806051D002416F8011D0A220F
:1027D8003846FFF7B8FBAE42044407D0002CF4D0CB
:1027E8002E213846FFF782FB0444EEE72046F8BD69
:1027F80010B50446044B112240F8043B002101F0B7
:1028080088F8204610BD00BFFC430A080346074A63
:1028180010B543F8042B01F1100251F8044B914212
:1028280043F8044BF9D10A781A7010BDFC430A0822
:10283800024A41600260042202757047FC430A089C
:1028480010B59DF8084044EA032343EA024242EAED
:10285800016104234160037510BD000037B5044DC4
:1028680005609DF818500095FFF7EAFF03B030BDEA
:10287800FC430A084174704770470021007CFFF749
:10288800F9B80121007CFFF7F5B8007CFFF7EAB83A
:10289800007CFFF7DFB838B50446007C0D46FFF72B
:1028A800E1F8002801DC607C20B12946207CFFF794
:1028B800E9F8012038BD007CFFF7ECB810B50446F4
:1028C800FDF7E9FB204610BD10B504460023636000
:1028D8004FF47A73A360054B0846236001232174E3
:1028E80063741146FFF7AEF8204610BD10440A087D
:1028F80010B504461422002101F00BF8054B2046C0
:102908006360054BE36040F2011323818123238236
:1029180010BD00BF010500208004002030B50E4D19
:1029280087B001A8FFF7E4FF296811F0010410D16E
:102938002846FDF7B2FB60B101AA21460748FFF718
:10294800C3FF2846FDF7AEFB054A0649034800F0D9
:1029580081FA024807B030BD7C040020040600203C
:10296800BC03002081280A0810B50446142200215F
:1029780000F0CFFF054B20466360054BE36040F253
:10298800011323818123238210BD00BFB4060020D8
:102998001C06002010B50E4C86B001A8FFF7E4FF16
:1029A8002368DB0710D42046FDF777FB60B101AA46
:1029B80001210848FFF788FF2046FDF773FB064A08
:1029C8000649044800F046FA024806B010BD00BFA8
:1029D80018060020A0060020BC03002081280A0851
:1029E800704741747047007CFEF7EABF007CFEF731
:1029F800BFBF007CFEF7CCBF007CFEF7C1BF007CE8
:102A0800FEF7CEBF10B50446FDF745FB204610BDC6
:102A180070B5457C04460E4625B9007CFEF7D0FF0C
:102A2800002805DD3146207CBDE87040FEF798BFE0
:102A3800284670BD10B5044608461146002262605B
:102A48004FF47A72A260054A2074226001226274EF
:102A58001A46FEF77DFF204610BD00BF40440A0815
:102A6800007CFEF7A5BF000038B50C4D296811F0B1
:102A7800010411D12846FDF710FB68B1084A214628
:102A8800084B0948FFF7D6FF2846FDF70BFB074A16
:102A98000749054800F0DEF9034838BD5008002012
:102AA80054080020CC070020B8070020BC030020F1
:102AB800E9290A0810B5836804460BB900F0CFF974
:102AC800C3689847A3681BB103222146204698474C
:102AD8002046BDE81040FDF7DEBA7047F8B5064657
:102AE80015460C468F18BC4206D0336814F8011BF3
:102AF8009B6830469847F6E72846F8BD0022007CD8
:102B0800FEF766BF0021007CFEF76ABF0021007C4B
:102B1800FEF76EBF0021007CFEF772BF0021007C2B
:102B2800FEF776BF10B50446FDF7B5FA204610BD8E
:102B380010B5044608464FF47A73A360044B00218D
:102B4800207461602360FEF773FF204610BD00BF4C
:102B580070440A080021007CFEF762BF002211467B
:102B68004068FFF703B8F0B5164689B011220F4642
:102B78000446002103A800F0CCFE304600F027FFF1
:102B88000025009581B27B6803AA3046FEF78AFFCC
:102B980020B129462046FFF74BFE03E003A9204653
:102BA800FFF734FE204609B0F0BD00221146406808
:102BB800FEF7FCBF002211464068FFF707B8002265
:102BC8004068FEF7FBBF002281F001014068FEF774
:102BD800E5BF00231A4619464068FEF7D7BF002212
:102BE80011464068FEF7B2BF002202214068FEF796
:102BF800B5BF00231A464068FEF7A0BF024B042267
:102C08005A60024A1A607047D808002098440A0897
:102C180000231A464068FEF791BF0022022140684F
:102C2800FEF79CBF002211464068FEF78FBF0022C6
:102C380011464068FEF79ABF00231A4619464068B5
:102C4800FEF79CBF00231A4619464068FEF79EBF50
:102C5800002281F001014068FEF7A0BF0022406811
:102C6800FEF7ACBF002211464068FEF7AFBF002256
:102C780011464068FEF79ABF70B516468EB00446F6
:102C880008A8FFF7B5FD1122002103A800F041FEB6
:102C9800304600F09CFE00250A4B009581B25B6827
:102CA80003AA3046FEF7FEFE20B129462046FFF76C
:102CB800BFFD03E003A92046FFF7A8FD20460EB09C
:102CC80070BD00BFD8080020024B034A1A600022DA
:102CD8005A607047E0080020CC440A0810B5044642
:102CE8000F48FFF707F828B1A4F10D03022B01D80C
:102CF800002010BD00F08EF8FFF72CFF08B1012C62
:102D0800F6D9FFF7B1FEFFF7ABFE18B1A4F1120335
:102D1800012BEDD9172C8CBF0020012010BD00BF5E
:102D2800E8080020172838B504460D460AD8FF29B8
:102D380008D0FFF7D3FF28B129462046BDE8384020
:102D4800FEF796BD38BD38B504460D46FEF798FD2A
:102D5800FF2810D0062804D84D2323FA00F0C30713
:102D680009D42046FFF7BAFF28B129462046BDE816
:102D78003840FEF78DBD38BD70B50C4C0C4E0D4D6E
:102D880000212046FEF7A2FF20460B4C324629467A
:102D980000F060F801212046FEF798FF32462946E8
:102DA8002046BDE8704000F055B800BFE808002094
:102DB800BC030020C51C0A08F808002010B5074C01
:102DC8002368DB0708D42046FDF767F920B1FEF732
:102DD80097FD2046FDF766F9014810BD0C09002053
:102DE8001009002013B5084C00231A461946009311
:102DF8002046FFF733FD2046044A054902B0BDE8E6
:102E0800104000F027B800BF14090020BC030020C0
:102E1800B9270A0838B50B4D296811F001040FD1FC
:102E28002846FDF73AF958B121460748FFF780FED2
:102E38002846FDF737F9054A0549034800F00AF81E
:102E4800014838BD2C09002030090020BC030020AF
:102E5800E32A0A080B460146184600F049BC08B5A3
:102E6800FEF71CFF184B1A68D1075CBF01221A60D5
:102E7800164B1A68D2075CBF01221A60144B1A68F5
:102E8800D0075CBF01221A60124B1A68D1075CBFD9
:102E980001221A60104B1A68D2075CBF01221A601F
:102EA8000E4B1A68D0075CBF01221A600C4B1A68D7
:102EB800D1075CBF01221A600A4B1A68D2075CBFAF
:102EC80001221A60704700BF600900205C090020D9
:102ED8005809002054090020500900204C090020FE
:102EE8004809002044090020244B1A68D0075CBF19
:102EF80001221A60224B1A68D1075CBF01221A60AE
:102F0800204B1A68D2075CBF01221A601E4B1A6850
:102F1800D0075CBF01221A601C4B1A68D1075CBF3E
:102F280001221A601A4B1A68D2075CBF01221A6084
:102F3800184B1A68D0075CBF01221A60164B1A6832
:102F4800D1075CBF01221A60144B1A68D2075CBF14
:102F580001221A60124B1A68D0075CBF01221A605E
:102F6800104B1A68D1075CBF01221A600E4B1A6811
:102F7800D2075CBF01221A60704700BF9009002089
:102F88008C0900208809002084090020800900207D
:102F98007C090020780900207409002070090020AD
:102FA8006C0900206809002064090020244B1A6875
:102FB800D0075CBF01221A60224B1A68D1075CBF98
:102FC80001221A60204B1A68D2075CBF01221A60DE
:102FD8001E4B1A68D0075CBF01221A601C4B1A6886
:102FE800D1075CBF01221A601A4B1A68D2075CBF6E
:102FF80001221A60184B1A68D0075CBF01221A60B8
:10300800164B1A68D1075CBF01221A60144B1A6864
:10301800D2075CBF01221A60124B1A68D0075CBF46
:1030280001221A60104B1A68D1075CBF01221A608E
:103038000E4B1A68D2075CBF01221A60704700BFA6
:10304800C0090020BC090020B8090020B4090020EC
:10305800B0090020AC090020A8090020A40900201C
:10306800A00900209C09002098090020940900204C
:10307800184B1A68D1075CBF01221A60164B1A68F0
:10308800D2075CBF01221A60144B1A68D0075CBFD4
:1030980001221A60124B1A68D1075CBF01221A601C
:1030A800104B1A68D2075CBF01221A600E4B1A68CF
:1030B800D0075CBF01221A600C4B1A68D1075CBFAD
:1030C80001221A600A4B1A68D2075CBF01221A60F3
:1030D800704700BFE0090020DC090020D809002063
:1030E800D4090020D0090020CC090020C8090020FC
:1030F800C409002080F0004002E000BF81F00041D8
:1031080042001FBF5FEA410392EA030F7FEA226C85
:103118007FEA236C6AD04FEA1262D2EB1363C1BF15
:10312800D218414048404140B8BF5B42192B88BF84
:10313800704710F0004F40F4000020F07F4018BFA7
:10314800404211F0004F41F4000121F07F4118BFC7
:10315800494292EA030F3FD0A2F1010241FA03FC6F
:1031680010EB0C00C3F1200301FA03F100F0004357
:1031780002D5494260EB4000B0F5000F13D3B0F11F
:10318800807F06D340084FEA310102F10102FE2A8E
:1031980051D2B1F1004F40EBC25008BF20F00100FE
:1031A80040EA03007047490040EB000010F4000FAC
:1031B800A2F10102EDD1B0FA80FCACF1080CB2EB3F
:1031C8000C0200FA0CF0AABF00EBC250524218439E
:1031D800BCBFD0401843704792F0000F81F4000143
:1031E80006BF80F400000132013BB5E74FEA410316
:1031F8007FEA226C18BF7FEA236C21D092EA030F82
:1032080004D092F0000F08BF0846704790EA010FFB
:103218001CBF0020704712F07F4F04D1400028BF28
:1032280040F00040704712F100723CBF00F500000A
:10323800704700F0004343F0FE4040F40000704740
:103248007FEA226216BF08467FEA236301464202EC
:1032580006BF5FEA412390EA010F40F480007047FF
:103268004FF0000304E000BF10F0004348BF4042A5
:103278005FEA000C08BF704743F0964301464FF0E1
:1032880000001CE050EA010208BF70474FF000033D
:103298000AE000BF50EA010208BF704711F000437E
:1032A80002D5404261EB41015FEA010C02BF84464E
:1032B8000146002043F0B64308BFA3F18053A3F5AD
:1032C8000003BCFA8CF2083AA3EBC25310DB01FAF4
:1032D80002FC634400FA02FCC2F12002BCF1004F78
:1032E80020FA02F243EB020008BF20F00100704709
:1032F80002F1200201FA02FCC2F1200250EA4C005D
:1033080021FA02F243EB020008BF20EADC707047A2
:103318004FF0FF0C1CEAD0521EBF1CEAD15392EAB0
:103328000C0F93EA0C0F6FD01A4480EA010C40028C
:1033380018BF5FEA41211ED04FF0006343EA5010E6
:1033480043EA5111A0FB01310CF00040B1F5000F28
:103358003EBF490041EAD3715B0040EA010062F1D7
:103368007F02FD2A1DD8B3F1004F40EBC25008BFC1
:1033780020F00100704790F0000F0CF0004C08BFDF
:1033880049024CEA502040EA51207F3AC2BFD2F1AC
:10339800FF0340EAC250704740F400004FF00003BA
:1033A800013A5DDC12F1190FDCBF00F000407047F4
:1033B800C2F10002410021FA02F1C2F1200200FA32
:1033C80002FC5FEA310040F1000053EA4C0308BFF9
:1033D80020EADC70704792F0000F00F0004C02BF4A
:1033E800400010F4000F013AF9D040EA0C0093F0C5
:1033F800000F01F0004C02BF490011F4000F013B1F
:10340800F9D041EA0C018FE70CEAD15392EA0C0F8C
:1034180018BF93EA0C0F0AD030F0004C18BF31F0F7
:10342800004CD8D180EA010000F00040704790F0CD
:10343800000F17BF90F0004F084691F0000F91F071
:10344800004F14D092EA0C0F01D142020FD193EA37
:103458000C0F03D14B0218BF084608D180EA0100BF
:1034680000F0004040F0FE4040F40000704740F09B
:10347800FE4040F4400070474FF0FF0C1CEAD05269
:103488001EBF1CEAD15392EA0C0F93EA0C0F69D0C5
:10349800A2EB030280EA010C49024FEA402037D030
:1034A8004FF0805343EA111143EA10130CF0004027
:1034B8008B4238BF5B0042F17D024FF4000C8B4217
:1034C80024BF5B1A40EA0C00B3EB510F24BFA3EBF7
:1034D800510340EA5C00B3EB910F24BFA3EB9103C7
:1034E80040EA9C00B3EBD10F24BFA3EBD10340EA21
:1034F800DC001B0118BF5FEA1C1CE0D1FD2A3FF667
:1035080050AF8B4240EBC25008BF20F0010070471B
:103518000CF0004C4CEA50207F32C2BFD2F1FF03BE
:1035280040EAC250704740F400004FF00003013AEF
:1035380037E792F0000F00F0004C02BF400010F493
:10354800000F013AF9D040EA0C0093F0000F01F0A7
:10355800004C02BF490011F4000F013BF9D041EAC9
:103568000C0195E70CEAD15392EA0C0F08D14202FC
:103578007FF47DAF93EA0C0F7FF470AF084676E7CF
:1035880093EA0C0F04D14B023FF44CAF08466EE7A8
:1035980030F0004C18BF31F0004CCAD130F0004276
:1035A8007FF45CAF31F000437FF43CAF5FE700BFCE
:1035B8004FF0FF3C06E000BF4FF0010C02E000BFF7
:1035C8004FF0010C4DF804CD4FEA40024FEA410399
:1035D8007FEA226C18BF7FEA236C11D001B052EA4F
:1035E800530C18BF90EA010F58BFB2EB030088BF15
:1035F800C81738BF6FEAE17018BF40F00100704784
:103608007FEA226C02D15FEA402C05D17FEA236C65
:10361800E4D15FEA412CE1D05DF8040B704700BFAC
:10362800844608466146FFE70FB5FFF7C9FF002843
:1036380048BF10F1000F0FBD4DF808EDFFF7F4FF7C
:103648000CBF012000205DF808FB00BF4DF808ED15
:10365800FFF7EAFF34BF012000205DF808FB00BF38
:103668004DF808EDFFF7E0FF94BF012000205DF85A
:1036780008FB00BF4DF808EDFFF7D2FF94BF01200B
:1036880000205DF808FB00BF4DF808EDFFF7C8FF04
:1036980034BF012000205DF808FB00BF4FEA40025C
:1036A800B2F1FE4F0FD34FF09E03B3EB12620DD968
:1036B8004FEA002343F0004310F0004F23FA02F0D2
:1036C80018BF404270474FF00000704712F1610F79
:1036D80001D1420205D110F0004008BF6FF0004050
:1036E80070474FF0000070470A22002100F012BA1C
:1036F80010B5054C13462CB10A4601460220AFF31B
:10370800008010BD204610BD0000000038B5074BF2
:1037180005461C68E36B1BB92420FEF797FAE063A3
:10372800E16B2846BDE8384000F002B86C03002081
:103738002DE9F0410C46804600F0F2FC2146074690
:10374800404600F0F1FC4669044606F26C76B30781
:1037580005D1642296FBF2F302FB13634BB94FF4D5
:10376800C87596FBF5F305FB1365B5FA85F35B0998
:1037780000E001235F4A302505FB032500F004FB28
:1037880000F004FB5C4B1B68F3B17B689E4205D1DB
:103798003968D8F80030FA6941B90AE0304600F0D3
:1037A8004BFA0028F4D14FF0FF330DE0934208DBC9
:1037B80001E0934207DABA6B9342ACBF00230123BE
:1037C80002E0002300E001232362236A3C20012B4E
:1037D8000CBFF96B396A4FF4616391FBF3F603FB95
:1037E800161393FBF0F200FB123061682368891A04
:1037F800A2681B1A921B3B2B23606160A26003DD49
:10380800013161603C3B04E0002B03DA013961605F
:103818003C33236063683B2B03DD0132A2603C3BF1
:1038280004E0002B03DA013AA2603C336360A3682A
:10383800172B22DDE269183B0132E261A269A3601D
:103848000132062AC8BF0022A261E2682369013258
:10385800E26055F823108A4246DD01330C2B08BF7D
:103868006369A2EB0102E26005BF01330022236114
:10387800226104BF6361E26136E0002B34DAE26959
:103888001833013AE261A269A360013A48BF0622EF
:10389800A261E268013AE26032BB2369013B01D4CC
:1038A80023611DE00B23236163695A1E12F0030F85
:1038B800626103F26B7305D1642193FBF1F201FBA2
:1038C80012324AB94FF4C87193FBF1F201FB12337B
:1038D800B3FA83F35B0900E0012303F5B673E361F0
:1038E800236955F82330E36000F04FFA2046BDE81D
:1038F800F08100BF60460A08000A002010B5431E88
:103908000A44914204D011F8014B03F8014FF8E73B
:1039180010BD03460244934202D003F8011BFAE7A4
:103928007047000038B5124B05461C68A36BD3B925
:103938001820FEF78BF943F20E33A06303804AF692
:10394800CD33438041F2342383804EF26D63C380CC
:103958004DF6EC630381052343810B238381012208
:103968000023C0E90423A36B00221D615A6138BDFE
:103978006C03002010F8012B11F8013B012A28BF25
:103988009A42F7D0D01A7047034611F8012B03F872
:10399800012B002AF9D17047024B0146186800F044
:1039A80003B800BF6C03002070B5064608460C46F5
:1039B80000F00DF8451C29463046FEF777F9064613
:1039C80018B12A462146FFF799FF304670BD0346D5
:1039D80013F8012B002AFBD1181A0138704730B5AB
:1039E80082B1451E013915F8013F11F8014FA34274
:1039F80006D1EC431444E04201D0002BF3D11C461D
:103A0800181B30BD104630BD2DE9F0470F468046E3
:103A18003F48D0F800903D4615F8014B09EB0400EB
:103A2800407800F0080000F0FF0608B12F46F2E7E2
:103A38002D2C03D1BD1C7C78012603E02B2C04BF60
:103A48007C78BD1C13B1102B0AD15BE0302C57D108
:103A5800287800F0DF0058284DD16C781023023503
:103A6800002E14BF4FF0004C6FF0004CBCFBF3FA73
:103A78000027384603FB1ACC09EB040E9EF801E038
:103A88001EF0040F01D0303C0BE01EF0030E1BD0DB
:103A9800BEF1010F0CBF4FF0370E4FF0570ECEEBB3
:103AA8000404A34210DDB7F1FF3F0AD0504506D801
:103AB80001D1644503DC03FB0040012701E04FF01E
:103AC800FF3715F8014BD7E77B1C0CD1002E4FF0C0
:103AD800220314BF4FF000406FF00040C8F80030D8
:103AE8002AB9BDE8F08706B1404272B107B1691E34
:103AF8001160BDE8F0873024002BB1D10823AFE76F
:103B08000A23ADE7302CA3D0AAE7BDE8F08700BFB1
:103B18000803002013460A46014602480068FFF7DA
:103B280073BF00BF6C0300202DE9F0470E468046A6
:103B38003B48D0F80090354615F8014B09EB0400D6
:103B4800407800F0080000F0FF0708B12E46F2E7C1
:103B58002D2C03D1B51C7478012703E02B2C04BF4E
:103B68007478B51C13B1102B0AD153E0302C4FD107
:103B7800287800F0DF00582845D16C7810230235EA
:103B88004FF0FF3CBCFBF3FC03FB0CFA00266FEA8A
:103B98000A0A304609EB040E9EF801E01EF0040FF5
:103BA80001D0303C0BE01EF0030E1AD0BEF1010F1D
:103BB8000CBF4FF0370E4FF0570ECEEB0404A34264
:103BC8000FDD002E08DB604506D801D1544503DC23
:103BD80003FB0040012601E04FF0FF3615F8014BCA
:103BE800D8E7002E07DA2223C8F800304FF0FF305C
:103BF8002AB9BDE8F08707B1404272B106B1691E23
:103C08001160BDE8F0873024002BB9D10823B7E74D
:103C18000A23B5E7302CABD0B2E7BDE8F08700BF88
:103C28000803002013460A46014602480068FFF7C9
:103C38007BBF00BF6C0300202DE9F74F044600F05E
:103C48006FFA40F2B1739C4240F3968040F26D15D2
:103C58006FF4F663E318A4F2B2729B1005FB023509
:103C6800A4F26D726FF0630392FBF3F36FF4C86212
:103C78002B44A5184FF4C87294FBF2F795FBF2F5A4
:103C880002FB17471D44642394FBF3F6B7FA87FE3B
:103C9800014603FB164600F13803019304F00303C1
:103CA80044604FEA5E1E00934FF0070C0B7A4A2BD4
:103CB8000ED14B69009AEC1802B906B927B93B2B0B
:103CC800D4BF0023012300E000232344013B3FE04D
:103CD800442B02D14B692B443AE0009B2BB9002EB0
:103CE8000CBFF0464FF0010800E0F046A946244B0F
:103CF800302202FB0838CC68A8F1040A0123A34249
:103D080004DA5AF804BF0133D944F8E709F1040387
:103D180093FBFCFBCBEBCB0ACAEB030A4B69012CE8
:103D2800B8BF0124B3EB0A0A0B6904F1804403F11C
:103D3800FF3304F1FF3448BF0AF1070AC3EBC3039A
:103D480058F824405344A34201DB073BFBE74B44AC
:103D58008C690C4A02FB03430C6A234441F81C3F5C
:103D6800019B9942A2D1C369826B9342ACBF0023E5
:103D780001230360012000E0002003B0BDE8F08FBC
:103D880060460A088051010070477047014B186867
:103D980000F002B86C0300202DE9F04F8DB0074603
:103DA80000F0BEF9B0490446384600F0B1F9AF4E0C
:103DB800054660B9AE4BAF4A1860AF4B1860AF4BC1
:103DC80030681A605A60FDF749FF356048E131688C
:103DD80079B93068FDF742FF2846FFF7F8FD411C26
:103DE8003846FDF763FF306048B12946FFF7CCFD40
:103DF80005E0FFF7BFFD002800F03281E9E72B78E6
:103E08000AAE3A2B08BF013533469D4A9D492846DC
:103E1800FDF734FF002840F323810A9BEF18EB5C81
:103E28002D2B03D101374FF0FF3503E02B2B08BFB3
:103E3800013701250DF1200A0DF11E0B4FF0000886
:103E48000396CDF808A00196CDF800B0334607AA2E
:103E58008D493846ADF81E80ADF82080FDF70EFF7D
:103E6800404540F3FD80BDF81E20BDF820303C21C0
:103E780001FB0233BDF81C204FF4616101FB0233E2
:103E88005D437F4B25627D4DDFF808922B600A9BCE
:103E98004A461F447B4933463846FDF7EFFE404506
:103EA80008DC2B68226A6B60714B1A60724BC3F88E
:103EB8000080D5E00A9BC5F80490FD18FB5C2D2B0B
:103EC80003D101354FF0FF3703E02B2B08BF013535
:103ED80001270023ADF81C30ADF81E30ADF82030B6
:103EE8000A930396CDF808A00196CDF800B03346A2
:103EF80007AA65492846FDF7C1FE002804DC236AA5
:103F0800A3F56163E3630EE0BDF81E20BDF8203021
:103F18003C2101FB0233BDF81C204FF4616101FB19
:103F280002335F43E76327460A9B4FF000091D44AD
:103F38002B782C2B08BF013595F80080B8F14D0F70
:103F480026D10DF12603029309AB0093039601963F
:103F580033460DF122024D492846FDF78FFE03280E
:103F68007ED1BDF822104B1E0B2B79D8BDF824202A
:103F7800531E042B74D8BDF82630062B70D887F84A
:103F88000880F9603A617B610A9B05EB03082AE027
:103F9800B8F14A0F06BF4346013544230A220BA94C
:103FA80028460593FFF73EFEDDF82C80ADF8260085
:103FB8004545059B14D14D23B9F1000F07D1237254
:103FC8000323E36002232361C4F814900BE084F810
:103FD80024300B23A3620123E3620023236302E05E
:103FE80080B23B7278610223ADF81C300023ADF833
:103FF8001E30ADF820300A9398F800302F2B0BD1E3
:104008000396CDF808A00196CDF800B0334607AA6C
:104018001F494046FDF732FEBDF81E20BDF820308E
:104028003C2101FB0233BDF81C204FF4616101FB08
:104038000233BB610A9D09F10109B9F1020F454438
:1040480007F11C077FF474AF6068FFF7F5FD226A7B
:10405800074B1A60E36B9B1A074A18BF01231360CA
:104068000DB0BDE8F08F00BFC0460A08FC0900206B
:10407800040A0020C3460A08000A00207003002032
:10408800EF090020C7460A08EA460A08D6460A0881
:10409800E9460A08E40900202DE9F84F07468B464F
:1040A800904600F0D7F8194B1D689A463DB15C461A
:1040B800234613F8012B42B13D2A1C46F8D1384655
:1040C80000F0C9F80020BDE8F88FCBEB0404A9463E
:1040D80059F8040B0028F2D022465946FFF77FFC16
:1040E80088B959F8043C1E191B5D3D2B0BD1DAF831
:1040F80000303846ED1AAD10C8F8005000F0ABF8A3
:10410800701CBDE8F88F4D46E1E700BFB8030020FA
:1041180007B501AAFFF7C0FF03B05DF804FB000074
:1041280000487047780300200268464BF0B592FBC0
:10413800F3F403FB1422002ABCBF02F5A83202F5EF
:10414800C0724FF4616092FBF0F300FB13224FF052
:104158003C008B6092FBF0F300FB132204F52F2444
:10416800ACBF04F66C2404F66B244B600A6007238A
:10417800E21C92FBF3F3344DC3EBC30394FBF5F558
:10418800D31A48F6AC6240F2B4578B612F4B3048D3
:1041980003FB0544B4FBF2F2B4FBF7F3B4FBF0F015
:1041A8002244D21A48F69466131A40F26D12B3FBF1
:1041B800F6F6B3FBF2F0B3FBF7F33444E31A02FB71
:1041C800103303EB830299240232B2FBF4F2544316
:1041D800A61C0524B6FBF4F40A2A34BF02266FF0A5
:1041E800090616444FF4C87202FB05055F1C012E30
:1041F80098BF0135B3F5997FA7EB040702D3A3F560
:10420800997214E0820705D16424B0FBF4F204FB30
:1042180012024AB94FF4C872B0FBF2F402FB140060
:10422800B0FA80F2520900E001223B331A44A5F2A9
:104238006C750023CA614D610E61CF600B62084640
:10424800F0BD00BF80510100B13A02004FC5FDFF2B
:10425800B03A0200704770471D000A085D000A085E
:1042680089000A088D000A08000000002530326421
:104278003A2530326400735F636F6C6F72006F6E43
:104288005F74696D65006F66665F74696D6500626D
:1042980072696768746E65737300747A0000000051
:1042A8002C01000018000000F40100002C0100009F
:1042B800500000000000000000000000C51C0A08B3
:1042C800C71C0A0866006C6E00666E00636F646542
:1042D8000064657461696C000D0A00253031307521
:1042E80020005D20002564002C200028293A2000A9
:1042F800205B00636F6465203D20002569006465CC
:104308007461696C73203D200062617564005365B7
:104318007269616C0055534253657269616C310072
:104328007479706500706172616D00636D64006915
:104338006400686E64007374726D0066696C740062
:104348006C766C0061646448616E646C65720072BE
:10435800656D6F766548616E646C657200656E7533
:104368006D48616E646C657273004A534F4E5374A6
:104378007265616D4C6F6748616E646C657200614F
:104388007070006E6F6E6500747261636500696EAF
:10439800666F007761726E006572726F720070618D
:1043A8006E696300616C6C00252B3033643A2530EC
:1043B80032750025592D256D2D25645425483A253B
:1043C8004D3A2553257A0061736374696D65000061
:1043D800000000000000000059220A085F220A08B5
:1043E80075220A086B220A085B220A0800000000EE
:1043F80000000000C7270A08B9270A08BB270A08CF
:10440800000000000000000081280A08C5280A08EA
:104418009F280A08A91E0A0899280A0883280A0852
:104428008B280A08BF280A0893280A087D280A0842
:104438000000000000000000E9290A080D2A0A0807
:10444800192A0A08A91E0A08F5290A08012A0A08C9
:10445800FB290A08072A0A08EB290A08EF290A088B
:104468000000000000000000E32A0A082D2B0A08BB
:10447800052B0A08E52A0A080D2B0A08152B0A0835
:104488001D2B0A08252B0A08000000000000000068
:10449800FB2B0A08F12B0A08E72B0A08652B0A08E8
:1044A800531F0A08DB2B0A08CF2B0A08C72B0A0858
:1044B800BD2B0A08B32B0A086F2B0A08000000005E
:1044C80000000000192C0A08232C0A082D2C0A08C1
:1044D800372C0A08412C0A084D2C0A08592C0A08BE
:1044E800652C0A086D2C0A08772C0A08812C0A0802
:1044F80000202020202020202020282828282820AC
:1045080020202020202020202020202020202020A3
:10451800208810101010101010101010101010100B
:1045280010040404040404040404041010101010FB
:1045380010104141414141410101010101010101C5
:104548000101010101010101010101011010101017
:104558001010424242424242020202020202020297
:1045680002020202020202020202020210101010EB
:104578002000000000000000000000000000000013
:104588000000000000000000000000000000000023
:104598000000000000000000000000000000000013
:1045A8000000000000000000000000000000000003
:1045B80000000000000000000000000000000000F3
:1045C80000000000000000000000000000000000E3
:1045D80000000000000000000000000000000000D3
:1045E80000000000000000000000000000000000C3
:1045F80000000000000000000000000000000000B3
:1046080000000000000000000000000000000000A2
:104618000000000000000000000000000000000092
:104628000000000000000000000000000000000082
:104638000000000000000000000000000000000072
:104648000000000000000000000000000000000062
:1046580000000000430000001F0000001C000000D4
:104668001F0000001E0000001F0000001E000000C8
:104678001F0000001F0000001E0000001F000000B7
:104688001E0000001F0000001F0000001D000000A9
:104698001F0000001E0000001F0000001E00000098
:1046A8001F0000001F0000001E0000001F00000087
:1046B8001E0000001F000000545A00474D540025FA
:1046C80031305B5E302D392C2B2D5D256E004D254C
:1046D8006875256E2E256875256E2E256875256EDC
:1046E800002F256875256E3A256875256E3A256868
:1046F80075256E009D040A0855180A08051D0A0844
:104708006D1F0A08AD200A0805210A08052C0A08A9
:10471800D12C0A08812D0A08ED2D0A086D2E0A08E9
:10472800F12E0A08B52F0A0879300A08000000009F
:08473800000000000000000079
:044740000000000075
:1047440001000000CF430A08F8440A0800000000F2
:10475400FC450A081C460A083C460A0800000000FA
:104764000000000000000000000000005C460A0891
:104774000000000000000000000000000000000035
:104784000000000000000000000000000000000025
:104794000000000000000000000000000000000015
:1047A4000000000000000000000000000C030020D6
:1047B400C3460A08C3460A080100000000000000BE
:1047C4004A0000000000000000000000000000009B
:1047D4000000000000000000000000004A0000008B
:1047E40000000000000000000000000000000000C5
:0C47F4000000000000000000080A002087
:10480000FFFFFFFF00000102030405060708090A75
:104810000B0C0D0E0F101112131415161718191A70
:084820001B1C1D1E1F202800B7
:044828007856341278
:04000005080A0018CD
:00000001FF
